:020000040800F2
:100000000000012065190008411700084917000881
:100010005117000859170008611700080000000078
:100020000000000000000000000000006917000848
:1000300077170008000000008517000893170008D4
:10004000B5190008B5190008B5190008B519000858
:10005000B5190008B5190008B5190008B519000848
:10006000B5190008B5190008B5190008B519000838
:10007000B5190008B5190008B5190008B519000828
:10008000B5190008B5190008B519000800000000EE
:10009000000000000000000000000000B51900088A
:1000A000B5190008B5190008B5190008B5190008F8
:1000B000B5190008B5190008B5190008B5190008E8
:1000C000B5190008B5190008B5190008B5190008D8
:1000D000B5190008B5190008B5190008000000009E
:1000E000B5190008B5190008B5190008000000008E
:1000F000000000000000000000000000B51900082A
:1001000000000000B5190008B5190008B51900086D
:1001100000000000000000000000000000000000DF
:10012000A1170008B5190008B5190008B51900088D
:10013000B5190008000000000000000000000000E9
:10014000000000000000000000000000B5190008D9
:10015000B5190008B5190008B5190008B519000847
:10016000B5190008B51900080000000000000000E3
:10017000000000000000000000000000000000007F
:1001800000000000B5190008000000000000000099
:04019000B519000895
:1001A00010B5054C237833B9044B13B10448AFF3B1
:1001B00000800123237010BDD40100200000000046
:1001C000DC73000808B5034B1BB103490348AFF3C8
:1001D000008008BD00000000D8010020DC7300088A
:1001E00001F0FF01102A2BDB10F0070F08D010F8E8
:1001F000013B013A8B422DD010F0070F42B3F6D1EC
:10020000F0B441EA012141EA014122F007047FF004
:1002100000070023F0E80256083C85EA010586EA5B
:10022000010685FA47F5A3FA87F586FA47F6A5FA97
:1002300087F68EB9EED1F0BC01F0FF0102F00702A3
:1002400032B110F8013B013A83EA010313B1F8D14E
:100250000020704701387047002D06BF354603382F
:10026000073815F0010F07D1013015F4807F02BF68
:10027000013015F4C03F0130F0BC0138704700BFB9
:10028000034613F8012B002AFBD1181A01387047D6
:1002900081F0004102E000BF83F0004330B54FEA37
:1002A00041044FEA430594EA050F08BF90EA020FA4
:1002B0001FBF54EA000C55EA020C7FEA645C7FEA37
:1002C000655C00F0E2804FEA5454D4EB5555B8BF5A
:1002D0006D420CDD2C4480EA020281EA030382EACB
:1002E000000083EA010180EA020281EA0303362D5D
:1002F00088BF30BD11F0004F4FEA01314FF4801C30
:100300004CEA113102D0404261EB410113F0004F41
:100310004FEA03334CEA133302D0524263EB4303F8
:1003200094EA050F00F0A780A4F10104D5F1200E96
:100330000DDB02FA0EFC22FA05F2801841F10001F1
:1003400003FA0EF2801843FA05F359410EE0A5F1C5
:1003500020050EF1200E012A03FA0EFC28BF4CF0F6
:10036000020C43FA05F3C01851EBE37101F00045AC
:1003700007D54FF0000EDCF1000C7EEB00006EEBB9
:100380000101B1F5801F1BD3B1F5001F0CD3490843
:100390005FEA30004FEA3C0C04F101044FEA44529A
:1003A00012F5800F80F09A80BCF1004F08BF5FEA21
:1003B000500C50F1000041EB045141EA050130BD01
:1003C0005FEA4C0C404141EB0101013C28BFB1F513
:1003D000801FE9D291F0000F04BF01460020B1FA5E
:1003E00081F308BF2033A3F10B03B3F120020CDA31
:1003F0000C3208DD02F1140CC2F10C0201FA0CF00F
:1004000021FA02F10CE002F11402D8BFC2F1200C73
:1004100001FA02F120FA0CFCDCBF41EA0C01904029
:10042000E41AA2BF01EB0451294330BD6FEA040472
:100430001F3C1CDA0C340EDC04F11404C4F120025D
:1004400020FA04F001FA02F340EA030021FA04F36F
:1004500045EA030130BDC4F10C04C4F1200220FAC6
:1004600002F001FA04F340EA0300294630BD21FA04
:1004700004F0294630BD94F0000F83F4801306BFCA
:1004800081F480110134013D4EE77FEA645C18BFBE
:100490007FEA655C29D094EA050F08BF90EA020F55
:1004A00005D054EA000C04BF1946104630BD91EA4D
:1004B000030F1EBF0021002030BD5FEA545C05D150
:1004C0004000494128BF41F0004130BD14F580048F
:1004D0003CBF01F5801130BD01F0004545F0FE4103
:1004E00041F470014FF0000030BD7FEA645C1ABF38
:1004F000194610467FEA655C1CBF0B46024650EA6F
:10050000013406BF52EA033591EA030F41F400219A
:1005100030BD00BF90F0000F04BF0021704730B520
:100520004FF4806404F132044FF000054FF00001F5
:1005300050E700BF90F0000F04BF0021704730B5B6
:100540004FF4806404F1320410F0004548BF40428B
:100550004FF000013EE700BF42004FEAE2014FEAE0
:1005600031014FEA02701FBF12F07F4393F07F4FBB
:1005700081F06051704732F07F4208BF704793F0BE
:100580007F4F04BF41F40021704730B54FF46074D1
:1005900001F0004521F000411CE700BF50EA0102D4
:1005A00008BF704730B54FF000050AE050EA01027D
:1005B00008BF704730B511F0004502D5404261EBED
:1005C00041014FF4806404F132045FEA915C3FF42E
:1005D000D8AE4FF003025FEADC0C18BF03325FEACB
:1005E000DC0C18BF033202EBDC02C2F1200300FA7C
:1005F00003FC20FA02F001FA03FE40EA0E0021FAA1
:1006000002F11444BDE600BF70B54FF0FF0C4CF48E
:10061000E06C1CEA11541DBF1CEA135594EA0C0F40
:1006200095EA0C0F00F0DEF82C4481EA030621EA7B
:100630004C5123EA4C5350EA013518BF52EA0335B6
:1006400041F4801143F4801338D0A0FB02CE4FF068
:100650000005E1FB02E506F00042E0FB03E54FF098
:100660000006E1FB03569CF0000F18BF4EF0010E90
:10067000A4F1FF04B6F5007F64F5407404D25FEA8C
:100680004E0E6D4146EB060642EAC62141EA55513F
:100690004FEAC52040EA5E504FEACE2EB4F1FD0C81
:1006A00088BFBCF5E06F1ED8BEF1004F08BF5FEAFF
:1006B000500E50F1000041EB045170BD06F00046B1
:1006C00046EA010140EA020081EA0301B4EB5C045E
:1006D000C2BFD4EB0C0541EA045170BD41F4801156
:1006E0004FF0000E013C00F3AB8014F1360FDEBF7B
:1006F000002001F0004170BDC4F10004203C35DA57
:100700000C341BDC04F11404C4F1200500FA05F3D9
:1007100020FA04F001FA05F240EA020001F000427A
:1007200021F0004110EBD37021FA04F642EB0601F0
:100730005EEA430E08BF20EAD37070BDC4F10C041A
:10074000C4F1200500FA04F320FA05F001FA04F2DE
:1007500040EA020001F0004110EBD37041F10001CA
:100760005EEA430E08BF20EAD37070BDC4F12005D5
:1007700000FA05F24EEA020E20FA04F301FA05F23D
:1007800043EA020321FA04F001F0004121FA04F2E5
:1007900020EA020000EBD3705EEA430E08BF20EAB5
:1007A000D37070BD94F0000F0FD101F000464000EF
:1007B00041EB010111F4801F08BF013CF7D041EA71
:1007C000060195F0000F18BF704703F00046520075
:1007D00043EB030313F4801F08BF013DF7D043EA46
:1007E0000603704794EA0C0F0CEA135518BF95EAFC
:1007F0000C0F0CD050EA410618BF52EA4306D1D183
:1008000081EA030101F000414FF0000070BD50EAA1
:10081000410606BF1046194652EA430619D094EA2B
:100820000C0F02D150EA013613D195EA0C0F05D115
:1008300052EA03361CBF104619460AD181EA030169
:1008400001F0004141F0FE4141F470014FF0000021
:1008500070BD41F0FE4141F4780170BD70B54FF0BC
:10086000FF0C4CF4E06C1CEA11541DBF1CEA13553C
:1008700094EA0C0F95EA0C0F00F0A7F8A4EB05041E
:1008800081EA030E52EA03354FEA013100F0888015
:100890004FEA03334FF0805545EA131343EA1263DE
:1008A0004FEA022245EA111545EA10654FEA002693
:1008B0000EF000419D4208BF964244F1FD0404F54C
:1008C000407402D25B084FEA3202B61A65EB0305A8
:1008D0005B084FEA32024FF480104FF4002CB6EB65
:1008E000020E75EB030E22BFB61A754640EA0C00E5
:1008F0005B084FEA3202B6EB020E75EB030E22BF25
:10090000B61A754640EA5C005B084FEA3202B6EB65
:10091000020E75EB030E22BFB61A754640EA9C0024
:100920005B084FEA3202B6EB020E75EB030E22BFF4
:10093000B61A754640EADC0055EA060E18D04FEAB2
:10094000051545EA16754FEA06164FEAC30343EA52
:1009500052734FEAC2025FEA1C1CC0D111F4801F1F
:100960000BD141EA00014FF000004FF0004CB6E718
:1009700011F4801F04BF01430020B4F1FD0C88BFB7
:10098000BCF5E06F3FF6AFAEB5EB030C04BFB6EBC2
:10099000020C5FEA500C50F1000041EB045170BDB5
:1009A0000EF0004E4EEA113114EB5C04C2BFD4EBE2
:1009B0000C0541EA045170BD41F480114FF0000E66
:1009C000013C90E645EA060E8DE60CEA135594EAE2
:1009D0000C0F08BF95EA0C0F3FF43BAF94EA0C0FE5
:1009E0000AD150EA01347FF434AF95EA0C0F7FF45A
:1009F00025AF104619462CE795EA0C0F06D152EAAE
:100A000003353FF4FDAE1046194622E750EA410691
:100A100018BF52EA43067FF4C5AE50EA41047FF4A2
:100A20000DAF52EA43057FF4EBAE12E74FF0FF3C07
:100A300006E000BF4FF0010C02E000BF4FF0010CD8
:100A40004DF804CD4FEA410C7FEA6C5C4FEA430C51
:100A500018BF7FEA6C5C1BD001B050EA410C0CBFA0
:100A600052EA430C91EA030F02BF90EA020F002002
:100A7000704710F1000F91EA030F58BF994208BF69
:100A800090422CBFD8176FEAE37040F00100704726
:100A90004FEA410C7FEA6C5C02D150EA013C07D17D
:100AA0004FEA430C7FEA6C5CD6D152EA033CD3D0C8
:100AB0005DF8040B704700BF8446104662468C46C2
:100AC0001946634600E000BF01B5FFF7B7FF0028F5
:100AD00048BF10F1000F01BD4DF808EDFFF7F4FF1E
:100AE0000CBF012000205DF808FB00BF4DF808EDA9
:100AF000FFF7EAFF34BF012000205DF808FB00BFCC
:100B00004DF808EDFFF7E0FF94BF012000205DF8ED
:100B100008FB00BF4DF808EDFFF7CEFF94BF0120A2
:100B200000205DF808FB00BF4DF808EDFFF7C4FF9B
:100B300034BF012000205DF808FB00BF4FEA410CE4
:100B40007FEA6C5C02D150EA013C0AD14FEA430CC7
:100B50007FEA6C5C02D152EA033C02D14FF0000004
:100B600070474FF0010070474FEA410212F5001242
:100B700015D211D56FF47873B3EB625212D94FEAE4
:100B8000C12343F0004343EA505311F0004F23FACE
:100B900002F018BF404270474FF00000704750EA23
:100BA000013005D111F0004008BF6FF000407047E0
:100BB0004FF00000704700BF4FEA4102B2F1E0433E
:100BC00024BFB3F5001CDCF1FE5C0DD901F0004C34
:100BD0004FEAC0024CEA5070B2F1004F40EB830084
:100BE00008BF20F00100704711F0804F21D113F1B0
:100BF0003872BCBF01F00040704741F480114FEAE9
:100C00005252C2F11802C2F1200C10FA0CF320FA71
:100C100002F018BF40F001004FEAC1234FEAD3238E
:100C200003FA0CFC40EA0C0023FA02F34FEA4303F8
:100C3000CCE77FEA625307D150EA01331EBF4FF081
:100C4000FE4040F44000704701F0004040F0FE409C
:100C500040F40000704700BF53B94AB9002908BFEB
:100C600000281CBF4FF0FF314FF0FF3000F088B973
:100C7000ADF1080C6DE904CE00F006F8DDF804E0F3
:100C8000DDE9022304B070472DE9F047089D0F46C7
:100C900004468C46002B48D18A42164661D9B2FAE6
:100CA00082F34BB1C3F1200201FA03FC20FA02F2F5
:100CB0009E4042EA0C0C9C404FEA164EB7B2BCFB79
:100CC000FEF1220C0EFB11CC42EA0C4201FB07F0B4
:100CD000904209D9B21801F1FF3C80F0EE809042B9
:100CE00040F2EB8002393244121AA4B2B2FBFEF099
:100CF0000EFB102244EA024400FB07F7A74209D981
:100D0000341900F1FF3280F0DA80A74240F2D78038
:100D10003444023840EA0140E41B00211DB1DC40AC
:100D20000023C5E90043BDE8F0878B4206D90DB129
:100D3000C5E9000100210846BDE8F087B3FA83F158
:100D4000002948D1BB4202D3824200F20781841AB3
:100D500067EB030201209446002DE4D0C5E9004C66
:100D6000E1E7002A00F09280B2FA82F3002B40F013
:100D7000A8808A1A4FEA164E1FFA86FC0121200C21
:100D8000B2FBFEF70EFB172240EA02420CFB07F013
:100D9000904207D9B21807F1FF3802D2904200F210
:100DA000E2804746121AA4B2B2FBFEF00EFB1022FC
:100DB00044EA02440CFB00FCA44507D9341900F1B5
:100DC000FF3202D2A44500F2CB801046A4EB0C0403
:100DD00040EA0740A2E7C1F120068B4022FA06FC58
:100DE0004CEA030C07FA01F420FA06F3F7404FEA45
:100DF0001C49234300FA01F81FFA8CFEB7FBF9F0F7
:100E00001C0C09FB107744EA074400FB0EF7A742CD
:100E100002FA01F20AD91CEB040400F1FF3A80F057
:100E20009B80A74240F2988002386444E41B9FB242
:100E3000B4FBF9F309FB134447EA044403FB0EFE39
:100E4000A64509D91CEB040403F1FF3780F082802A
:100E5000A6457FD9023B644443EA0040A4EB0E045C
:100E6000A0FB02E7BC427346B94663D360D05DB1D4
:100E7000B8EB030264EB090404FA06F622FA01F364
:100E80001E43CC40C5E9006400214CE762084808D5
:100E900042EAC1710B0C43EA00438AB242EA0342C0
:100EA000B3FBF6F1E407B4463746B6461F23B0FB62
:100EB000F6F0D21B41EA004161E7614614E71046B3
:100EC00028E7C3F1200120FA01F29E4027FA01F140
:100ED0009F403A434FEA164E1FFA86FCB1FBFEF7DD
:100EE0000EFB1710110C41EA004107FB0CF8884576
:100EF00004FA03F43AD9711807F1FF3001D288459A
:100F00001FD8A1EB0801B1FBFEF808FB0CF70EFBA4
:100F1000181192B242EA0142BA422FD2B21808F135
:100F2000FF31C6D2BA42C4D2A8F102013244C0E7AE
:100F3000F0459CD2BEEB020367EB0C070138B946C3
:100F400095E7A6EB08084144B81EB1FBFEF808FB84
:100F50000CF7DCE73B467FE7504667E70846FBE6D1
:100F60003444023832E7023F32441BE7A1EB080168
:100F70003846B1FBFEF808FB0CF7C8E7414698E796
:100F8000704700BF80B582B000AF78600B46FB7041
:100F9000F91C4FF6FF730122786802F0D7FE00BFFC
:100FA0000837BD4680BD80B582B000AF786039603B
:100FB00007E03B685A1C3A601B7819467868FFF7CF
:100FC000E1FF3B681B78002BF3D100BF00BF08375F
:100FD000BD4680BD2DE9B04388B004AF00F0ECFC05
:100FE00000F000F900F040FA00F01EFA00F064F999
:100FF00000F0F0F900F0C0F902226A496A4800F0F6
:10100000F5FE6A496A48FFF7CEFF6A4B4FF00002CF
:101010001A60694B4FF000021A600023FB6053E036
:10102000614800F0A3FD0A215F4800F053FE5E48CE
:1010300000F0D0FF03469AB25A4B1A800A215A4850
:1010400000F048FE584800F0C5FF03469AB2554BE1
:101050005A80544B1B8807EE903AF8EEE77A9FEDE2
:10106000577A77EEC77A9FED567A67EE877AC7EDA3
:10107000027AD7ED027A27EEA77A4E4BD3ED007AAB
:1010800077EE277A4B4BC3ED007A464B5B8807EE31
:10109000903AF8EEE77A9FED497A77EEC77A9FEDBE
:1010A000487A67EE877AC7ED017AD7ED017A27EEA5
:1010B000A77A414BD3ED007A77EE277A3E4BC3ED0A
:1010C000007AFB680133FB60FB68632BA8DD394BBA
:1010D000D3ED007A9FED3B7AC7EE876A16EE900A51
:1010E000FFF73AFA02460B4643EC102B06F04AF89B
:1010F00051EC100B4FF00002334BFFF785FA02461C
:101100000B4610461946FFF757FD03462F4A13605A
:10111000294BD3ED007A9FED2B7AC7EE876A16EE46
:10112000900AFFF719FA02460B4643EC102B06F023
:1011300029F851EC100B4FF00002254BFFF764FA31
:1011400002460B4610461946FFF736FD0346214A74
:1011500013601E4B1B681846FFF7FEF98046894650
:101160001C4B1B681846FFF7F7F904460D461A4B4F
:101170001B681846FFF7F0F902460B46CDE902233B
:10118000CDE9004542464B461449154803F0BAFEE6
:1011900013490748FFF707FF4FF47A7000F07EFC11
:1011A00033E700BF34030020F0010020F87300088B
:1011B000EC020020A8030020AC0300200000004542
:1011C0003333533A0000C84200005940380300202E
:1011D00000003E403C030020400300201C74000837
:1011E0004403002080B594B000AF07F12003302203
:1011F0000021184603F0ECFE07F10C0300221A60F0
:101200005A609A60DA601A610023BB60284B1B6C3D
:10121000274A43F080531364254B1B6C03F0805323
:10122000BB60BB6800237B60224B1B6823F44043F8
:10123000204A43F4004313601E4B1B6803F44043F1
:101240007B607B6801233B624FF480337B62022327
:10125000BB634FF48003FB6319233B64A8237B64C7
:101260000223BB640423FB6407F12003184602F049
:10127000C7F80346002B01D000F02CF90F23FB60C8
:1012800002233B6100237B614FF48053BB61002349
:10129000FB6107F10C030221184602F029FB03460B
:1012A000002B01D000F016F900BF5037BD4680BDBD
:1012B000003802400070004080B584B000AF3B466B
:1012C00000221A605A609A60DA60284B284A1A6035
:1012D000264B4FF480325A60244B00229A60234BF5
:1012E00001221A61214B01221A76204B002283F839
:1012F00020201E4B0022DA621C4B1E4A9A621B4BB6
:101300000022DA60194B0222DA61184B012283F8BD
:101310003020164B00225A61144800F0E3FB0346CC
:10132000002B01D000F0D6F800233B6001237B6046
:101330000023BB603B4619460C4800F077FE03468D
:10134000002B01D000F0C6F801233B6002237B6034
:101350003B461946054800F069FE0346002B01D0C4
:1013600000F0B8F800BF1037BD4680BDF001002086
:10137000002001400100000F80B500AF124B134A5E
:101380001A60114B124A5A600F4B00229A600E4BA2
:101390000022DA600C4B4FF480421A610A4B0022A3
:1013A0005A61094B00229A61074B0022DA61064B11
:1013B00000221A62044801F0DFFE0346002B01D030
:1013C00000F088F800BF80BD980200200054004063
:1013D000A086010080B500AF114B124A1A60104B75
:1013E0004FF416525A600E4B00229A600C4B0022AA
:1013F000DA600B4B00221A61094B0C225A61084B30
:1014000000229A61064B0022DA61054802F04EFC88
:101410000346002B01D000F05DF800BF80BD00BF87
:10142000EC0200200010014080B582B000AF002324
:101430007B600C4B1B6B0B4A43F480031363094B1B
:101440001B6B03F480037B607B6800220021382043
:1014500001F067F9382001F080F900BF0837BD4678
:1014600080BD00BF0038024080B485B000AF0023CB
:10147000FB60174B1B6B164A43F080031363144B3E
:101480001B6B03F08003FB60FB680023BB60104B09
:101490001B6B0F4A43F0010313630D4B1B6B03F0EF
:1014A0000103BB60BB6800237B60094B1B6B084AD0
:1014B00043F002031363064B1B6B03F002037B60D4
:1014C0007B6800BF1437BD465DF8047B704700BFE2
:1014D0000038024080B400AF72B600BF00BFFDE725
:1014E00080B483B000AF00237B60104B5B6C0F4A6D
:1014F00043F4804353640D4B5B6C03F480437B6087
:101500007B6800233B60094B1B6C084A43F0805307
:101510001364064B1B6C03F080533B603B6800BFB9
:101520000C37BD465DF8047B704700BF00380240B1
:1015300080B58AB000AF786007F1140300221A600A
:101540005A609A60DA601A617B681B682F4A93427E
:1015500057D100233B612E4B5B6C2D4A43F48073C3
:1015600053642B4B5B6C03F480733B613B6900233A
:10157000FB60274B1B6B264A43F001031363244B8C
:101580001B6B03F00103FB60FB6803237B610323F8
:10159000BB610023FB6107F1140319461D4801F0EC
:1015A00067FC1D4B1D4A1A601B4B00225A601A4BE8
:1015B00000229A60184B0022DA60174B4FF48062C9
:1015C0001A61154B4FF400625A61134B4FF40052ED
:1015D0009A61114B4FF48072DA610F4B00221A624C
:1015E0000D4B00225A620C4801F0D2F80346002B42
:1015F00001D0FFF76FFF7B68074A9A63064A7B6852
:10160000936300BF2837BD4680BD00BF0020014066
:1016100000380240000002403802002010640240FE
:1016200080B58AB000AF786007F1140300221A6019
:101630005A609A60DA601A617B681B68194A9342A3
:101640002BD100233B61184B1B6B174A43F002035D
:101650001363154B1B6B03F002033B613B69C02313
:101660007B611223BB610023FB6103233B620423E4
:101670007B6207F1140319460C4801F0F9FB0023C3
:10168000FB60094B1B6C084A43F400131364064BC0
:101690001B6C03F40013FB60FB6800BF2837BD46DA
:1016A00080BD00BF005400400038024000040240EA
:1016B00080B58AB000AF786007F1140300221A6089
:1016C0005A609A60DA601A617B681B68194A934213
:1016D0002CD100233B61184B5B6C174A43F010037D
:1016E0005364154B5B6C03F010033B613B690023B3
:1016F000FB60114B1B6B104A43F0010313630E4B4D
:101700001B6B03F00103FB60FB684FF4C0637B615C
:101710000223BB610023FB6103233B6207237B623F
:1017200007F114031946054801F0A2FB00BF283752
:10173000BD4680BD0010014000380240000002405C
:1017400080B400AF00BFFDE780B400AF00BFFDE78D
:1017500080B400AF00BFFDE780B400AF00BFFDE77D
:1017600080B400AF00BFFDE780B400AF00BFBD464E
:101770005DF8047B704780B400AF00BFBD465DF8E4
:10178000047B704780B400AF00BFBD465DF8047BAA
:10179000704780B500AF00F061F900BF80BD000068
:1017A00080B500AF024801F0F9F800BF80BD00BF6E
:1017B0003802002080B400AF01231846BD465DF812
:1017C000047B704780B582B000AF7860396003F069
:1017D00051FC034616221A604FF0FF3318460837B3
:1017E000BD4680BD80B582B000AF78604FF0FF315C
:1017F0007868FFF7E7FF00BFFDE780B586B000AF70
:10180000F860B9607A6000237B610AE0AFF3008082
:101810000146BB685A1CBA60CAB21A707B690133B0
:101820007B617A697B689A42F0DB7B6818461837DF
:10183000BD4680BD80B586B000AFF860B9607A6003
:1018400000237B6109E0BB685A1CBA601B7818460C
:10185000AFF300807B6901337B617A697B689A42D0
:10186000F1DB7B6818461837BD4680BD80B483B075
:1018700000AF78604FF0FF3318460C37BD465DF877
:10188000047B704780B483B000AF786039603B68F8
:101890004FF400525A60002318460C37BD465DF8DD
:1018A000047B704780B483B000AF78600123184692
:1018B0000C37BD465DF8047B704780B485B000AF3F
:1018C000F860B9607A60002318461437BD465DF8A9
:1018D000047B704780B586B000AF7860144A154B22
:1018E000D31A7B617B693B61134B1B68002B02D1D0
:1018F000114B124A1A60104B1A687B6813443A69FC
:101900009A4207D203F0B6FB03460C221A604FF04E
:10191000FF3309E0084B1B68FB60074B1A687B68C4
:101920001344054A1360FB6818461837BD4680BD4E
:101930000000012000040000B00300200805002082
:1019400080B400AF064BD3F88830054A43F47003E7
:10195000C2F8883000BFBD465DF8047B704700BF09
:1019600000ED00E0DFF834D0FFF7EAFF0C480D4946
:101970000D4A002302E0D458C4500433C4188C42EA
:10198000F9D30A4A0A4C002301E013600432A24250
:10199000FBD303F075FBFFF71DFB70470000012030
:1019A00000000020D4010020F8770008D4010020B6
:1019B00004050020FEE7000080B500AF0E4B1B6859
:1019C0000D4A43F4007313600B4B1B680A4A43F43F
:1019D00080631360084B1B68074A43F480731360ED
:1019E000032000F093FE0F2000F008F8FFF778FDC9
:1019F0000023184680BD00BF003C024080B582B085
:101A000000AF7860124B1A68124B1B7819464FF4DE
:101A10007A73B3FBF1F3B2FBF3F3184600F0ABFEBD
:101A20000346002B01D001230EE07B680F2B0AD860
:101A3000002279684FF0FF3000F073FE064A7B68A1
:101A40001360002300E0012318460837BD4680BD1F
:101A500000000020080000200400002080B400AF37
:101A6000064B1B781A46064B1B681344044A136046
:101A700000BFBD465DF8047B704700BF0800002032
:101A8000B403002080B400AF034B1B681846BD466A
:101A90005DF8047B704700BFB403002080B584B0BC
:101AA00000AF7860FFF7EEFFB8607B68FB60FB6813
:101AB000B3F1FF3F05D00A4B1B781A46FB6813446D
:101AC000FB6000BFFFF7DEFF0246BB68D31AFA686F
:101AD0009A42F7D800BF00BF1037BD4680BD00BF97
:101AE0000800002080B584B000AF78600023FB734D
:101AF0007B68002B01D1012333E07B681B6C002B3A
:101B000009D17868FFF714FD7B6800225A647B686E
:101B1000002283F83C207B681B6C03F01003002B31
:101B200018D17B681B6C23F4885323F0020343F025
:101B300002027B681A64786800F09AFB7B680022D6
:101B40005A647B681B6C23F0030343F001027B683B
:101B50001A6401E00123FB737B68002283F83C20B8
:101B6000FB7B18461037BD4680BD000080B485B0B1
:101B700000AF78600023BB607B6893F83C30012B9A
:101B800001D1022397E07B68012283F83C207B6827
:101B90001B689B6803F00103012B18D07B681B684E
:101BA0009A687B681B6842F001029A60454B1B688B
:101BB000454AA2FB03239A0C13465B001344BB6007
:101BC00002E0BB68013BBB60BB68002BF9D17B68BE
:101BD0001B689B6803F00103012B5FD17B681B6CC2
:101BE00023F4E06323F0010343F480727B681A64FA
:101BF0007B681B685B6803F48063002B07D07B68FD
:101C00001B6C23F4405343F480527B681A647B6856
:101C10001B6C03F48053B3F5805F06D17B685B6C6B
:101C200023F006027B685A6402E07B6800225A6453
:101C30007B68002283F83C20244BFB607B681B6898
:101C40006FF022021A60FB685B6803F01F03002B31
:101C50000FD17B681B689B6803F04053002B29D190
:101C60007B681B689A687B681B6842F080429A60B8
:101C700020E07B681B68164A93421BD17B681B6877
:101C80009B6803F04053002B14D17B681B689A6853
:101C90007B681B6842F080429A600BE07B681B6C9B
:101CA00043F010027B681A647B685B6C43F00102AE
:101CB0007B685A64002318461437BD465DF8047BE0
:101CC000704700BF0000002083DE1B43002301405B
:101CD0000020014080B584B000AF786039600023F7
:101CE000FB607B681B689B6803F48063B3F5806FBF
:101CF00013D17B681B689B6803F48073B3F5807F06
:101D00000BD17B681B6C43F020027B681A647B68F4
:101D1000002283F83C20012363E0FFF7B3FEF86064
:101D200021E03B68B3F1FF3F1DD03B68002B07D09B
:101D3000FFF7A8FE0246FB68D31A3A689A4212D20D
:101D40007B681B681B6803F00203022B0BD07B68C7
:101D50001B6C43F004027B681A647B68002283F8E2
:101D60003C2003233DE07B681B681B6803F00203F3
:101D7000022BD6D17B681B686FF012021A607B6859
:101D80001B6C43F400727B681A647B681B689B6859
:101D900003F04053002B23D17B681B7E002B1FD107
:101DA0007B681B68DB6A03F47003002B06D07B683A
:101DB0001B689B6803F48063002B11D17B681B6C4C
:101DC00023F480727B681A647B681B6C03F4805375
:101DD000002B05D17B681B6C43F001027B681A6401
:101DE000002318461037BD4680BD000080B588B07E
:101DF00000AFF860B9607A6000237B610023FB7755
:101E0000FB6893F83C30012B01D10223D0E0FB6842
:101E1000012283F83C20FB681B689B6803F00103E8
:101E2000012B18D0FB681B689A68FB681B6842F09E
:101E300001029A60604B1B68604AA2FB03239A0C64
:101E400013465B0013447B6102E07B69013B7B61CD
:101E50007B69002BF9D1FB681B689B6803F48073D6
:101E6000B3F5807F07D1FB681B689A68FB681B6825
:101E700022F480729A60FB681B689B6803F0010380
:101E8000012B40F08880FB681B6C23F4E06323F097
:101E9000010343F48072FB681A64FB681B685B688B
:101EA00003F48063002B07D0FB681B6C23F44053C2
:101EB00043F48052FB681A64FB681B6C03F4805384
:101EC000B3F5805F06D1FB685B6C23F00602FB680C
:101ED0005A6402E0FB6800225A64FB68002283F81F
:101EE0003C20374BBB61FB689B6B364ADA63FB686F
:101EF0009B6B354A1A64FB689B6B344ADA64FB6857
:101F00001B686FF022021A60FB681B685A68FB6846
:101F10001B6842F080625A60FB681B689A68FB6825
:101F20001B6842F480729A60FB68986BFB681B68C0
:101F30004C331946BA687B6800F0D8FC0346FB773F
:101F4000BB695B6803F01F03002B0FD1FB681B68A4
:101F50009B6803F04053002B29D1FB681B689A68EB
:101F6000FB681B6842F080429A6020E0FB681B68B7
:101F7000174A93421BD1FB681B689B6803F04053D0
:101F8000002B14D1FB681B689A68FB681B6842F041
:101F900080429A600BE0FB681B6C43F01002FB6808
:101FA0001A64FB685B6C43F00102FB685A64FB7FB8
:101FB00018462037BD4680BD0000002083DE1B434D
:101FC0000023014069240008232500083F2500085C
:101FD0000020014080B483B000AF78607B681B684C
:101FE000DB6C18460C37BD465DF8047B704780B447
:101FF00083B000AF786000BF0C37BD465DF8047B4E
:10200000704780B483B000AF786000BF0C37BD4626
:102010005DF8047B704780B483B000AF786000BF88
:102020000C37BD465DF8047B7047000080B485B076
:1020300000AF786039600023BB607B6893F83C3068
:10204000012B01D1022305E17B68012283F83C20AA
:102050003B681B68092B25D97B681B68D9683B68DE
:102060001B689BB21A4613465B0013441E3B0722B3
:1020700002FA03F3DA437B681B680A40DA607B6884
:102080001B68D9683B689A683B681B689BB2184616
:1020900003465B0003441E3B9A407B681B680A436F
:1020A000DA6022E07B681B6819693B681B689BB299
:1020B0001A4613465B001344072202FA03F3DA437D
:1020C0007B681B680A401A617B681B6819693B685A
:1020D0009A683B681B689BB2184603465B00034442
:1020E0009A407B681B680A431A613B685B68062B51
:1020F00024D87B681B68596B3B685A6813469B0061
:102100001344053B1F2202FA03F3DA437B681B6882
:102110000A405A637B681B68596B3B681B689BB21B
:1021200018463B685A6813469B001344053B00FA67
:1021300003F27B681B680A435A634CE03B685B68A8
:102140000C2B24D87B681B68196B3B685A681346B4
:102150009B001344233B1F2202FA03F3DA437B68FC
:102160001B680A401A637B681B68196B3B681B6815
:102170009BB218463B685A6813469B001344233BA6
:1021800000FA03F27B681B680A431A6323E07B684A
:102190001B68D96A3B685A6813469B001344413B4D
:1021A0001F2202FA03F3DA437B681B680A40DA62F3
:1021B0007B681B68D96A3B681B689BB218463B6802
:1021C0005A6813469B001344413B00FA03F27B68B4
:1021D0001B680A43DA62224BFB607B681B68214A5A
:1021E000934209D13B681B68122B05D1FB685B68E1
:1021F00043F48002FB685A607B681B68194A93426B
:1022000023D13B681B68102B03D03B681B68112B44
:102210001BD1FB685B6843F40002FB685A603B68B3
:102220001B68102B11D1104B1B68104AA2FB032313
:102230009A0C13469B0013445B00BB6002E0BB6832
:10224000013BBB60BB68002BF9D17B68002283F89F
:102250003C20002318461437BD465DF8047B7047C8
:1022600000230140002001400000002083DE1B43CA
:1022700080B485B000AF7860794BFB60FB685B6829
:1022800023F44032FB685A60FB685A687B685B68DD
:102290001A43FB685A607B681B685A687B681B6836
:1022A00022F480725A607B681B6859687B681B69DE
:1022B0001A027B681B680A435A607B681B685A686D
:1022C0007B681B6822F040725A607B681B68596803
:1022D0007B689A687B681B680A435A607B681B6846
:1022E0009A687B681B6822F400629A607B681B68AE
:1022F00099687B68DA687B681B680A439A607B6828
:102300009B6A584A934222D07B681B689A687B6814
:102310001B6822F070629A607B681B6899687B6812
:102320009A6A7B681B680A439A607B681B689A6894
:102330007B681B6822F040529A607B681B68996832
:102340007B68DA6A7B681B680A439A600FE07B68E7
:102350001B689A687B681B6822F070629A607B68D1
:102360001B689A687B681B6822F040529A607B6801
:102370001B689A687B681B6822F002029A607B687F
:102380001B6899687B681B7E5A007B681B680A4340
:102390009A607B6893F82030002B1BD07B681B6809
:1023A0005A687B681B6842F400625A607B681B684D
:1023B0005A687B681B6822F460425A607B681B681D
:1023C00059687B685B6A013B5A037B681B680A4358
:1023D0005A6007E07B681B685A687B681B6822F4B8
:1023E00000625A607B681B68DA6A7B681B6822F4AB
:1023F0007002DA627B681B68D96A7B68DB69013B23
:102400001A057B681B680A43DA627B681B689A6856
:102410007B681B6822F400729A607B681B6899686D
:102420007B6893F830305A027B681B680A439A60D5
:102430007B681B689A687B681B6822F480629A60DC
:102440007B681B6899687B685B699A027B681B687C
:102450000A439A6000BF1437BD465DF8047B70479D
:10246000002301400100000F80B584B000AF786008
:102470007B689B6BFB60FB681B6C03F05003002BBD
:102480003CD1FB681B6C43F40072FB681A64FB6868
:102490001B689B6803F04053002B2BD1FB681B7E0D
:1024A000002B27D1FB681B68DB6A03F47003002B49
:1024B00006D0FB681B689B6803F48063002B19D16E
:1024C000FB681B685A68FB681B6822F020025A6090
:1024D000FB681B6C23F48072FB681A64FB681B6C3E
:1024E00003F48053002B05D1FB681B6C43F0010201
:1024F000FB681A64F868FFF77AFD0EE0FB681B6C56
:1025000003F01003002B03D0F868FFF784FD04E00C
:10251000FB689B6BDB6C7868984700BF1037BD4643
:1025200080BD80B584B000AF78607B689B6BFB603A
:10253000F868FFF766FD00BF1037BD4680BD80B567
:1025400084B000AF78607B689B6BFB60FB684022C7
:102550001A64FB685B6C43F00402FB685A64F86819
:10256000FFF759FD00BF1037BD4680BD80B485B070
:1025700000AF78607B6803F00703FB600C4BDB68FF
:10258000BB60BA684FF6FF031340BB60FB681A02DA
:10259000BB68134343F0BF6343F40033BB60044A9A
:1025A000BB68D36000BF1437BD465DF8047B70473D
:1025B00000ED00E080B400AF044BDB681B0A03F0C1
:1025C00007031846BD465DF8047B704700ED00E048
:1025D00080B483B000AF0346FB7197F90730002B3E
:1025E0000BDBFB7903F01F02074997F907305B0902
:1025F000012000FA02F241F8232000BF0C37BD464B
:102600005DF8047B704700BF00E100E080B483B058
:1026100000AF03463960FB7197F90730002B0ADBE6
:102620003B68DAB20C4997F907301201D2B20B4479
:1026300083F800230AE03B68DAB20849FB7903F02B
:102640000F03043B1201D2B20B441A7600BF0C37C1
:10265000BD465DF8047B704700E100E000ED00E05E
:1026600080B489B000AFF860B9607A60FB6803F0AD
:102670000703FB61FB69C3F10703042B28BF042395
:10268000BB61FB690433062B02D9FB69033B00E005
:1026900000237B614FF0FF32BB6902FA03F3DA4398
:1026A000BB681A407B699A404FF0FF317B6901FAA1
:1026B00003F3D9437B680B40134318462437BD46C8
:1026C0005DF8047B7047000080B582B000AF786091
:1026D0007B68013BB3F1807F01D301230FE00A4AFD
:1026E0007B68013B53600F214FF0FF30FFF78EFFF7
:1026F000054B00229A60044B07221A6000231846FB
:102700000837BD4680BD00BF10E000E080B582B054
:1027100000AF78607868FFF729FF00BF0837BD4633
:1027200080BD80B586B000AF0346B9607A60FB73A8
:1027300000237B61FFF73EFF78617A68B9687869AA
:10274000FFF78EFF024697F90F3011461846FFF744
:102750005DFF00BF1837BD4680BD80B582B000AFB9
:102760000346FB7197F907301846FFF731FF00BFAA
:102770000837BD4680BD80B582B000AF786078680C
:10278000FFF7A2FF034618460837BD4680BD00008C
:1027900080B586B000AF786000237B61FFF772F9E7
:1027A00038617B68002B01D1012399E07B6802220C
:1027B00083F835207B68002283F834207B681B680F
:1027C0001A687B681B6822F001021A600FE0FFF7AD
:1027D00059F902463B69D31A052B08D97B68202298
:1027E0005A657B68032283F83520032378E07B68F1
:1027F0001B681B6803F00103002BE8D17B681B6892
:102800001B687B617A69384B13407B617B685A682F
:102810007B689B681A437B68DB681A437B681B698B
:102820001A437B685B691A437B689B691A437B6820
:10283000DB691A437B681B6A13437A6913437B6124
:102840007B685B6A042B07D17B68DA6A7B681B6B49
:1028500013437A6913437B617B681B687A691A604A
:102860007B681B685B697B617B6923F007037B6185
:102870007B685B6A7A6913437B617B685B6A042BC4
:1028800017D17B689B6A7A6913437B617B68DB6A3B
:10289000002B0ED0786800F06FFA0346002B08D0AA
:1028A0007B6840225A657B68012283F8352001232A
:1028B00016E07B681B687A695A61786800F026FA2E
:1028C0000346FB607B68DB6D3F229A40FB689A60A1
:1028D0007B6800225A657B68012283F8352000233B
:1028E00018461837BD4680BD3F8010F080B586B0D1
:1028F00000AFF860B9607A603B600023FB75FB684D
:102900009B6D3B61FB6893F83430012B01D10223AE
:1029100040E0FB68012283F83420FB6893F83530EF
:10292000DBB2012B2FD1FB68022283F83520FB6834
:1029300000225A653B687A68B968F86800F0B8F90F
:10294000FB68DB6D3F229A403B699A60FB681B681D
:102950001A68FB681B6842F016021A60FB681B6C61
:10296000002B07D0FB681B681A68FB681B6842F0E5
:1029700008021A60FB681B681A68FB681B6842F053
:1029800001021A6005E0FB68002283F8342002236C
:10299000FB75FB7D18461837BD4680BD80B586B0F7
:1029A00000AF78600023BB608E4B1B688E4AA2FB91
:1029B00003239B0A7B617B689B6D3B613B691B68C2
:1029C000FB607B68DB6D08229A40FB681340002B9C
:1029D0001AD07B681B681B6803F00403002B13D01C
:1029E0007B681B681A687B681B6822F004021A6007
:1029F0007B68DB6D08229A403B699A607B685B6D5F
:102A000043F001027B685A657B68DB6D01229A40C6
:102A1000FB681340002B12D07B681B685B6903F0D6
:102A20008003002B0BD07B68DB6D01229A403B6951
:102A30009A607B685B6D43F002027B685A657B6835
:102A4000DB6D04229A40FB681340002B12D07B6898
:102A50001B681B6803F00203002B0BD07B68DB6D47
:102A600004229A403B699A607B685B6D43F00402E4
:102A70007B685A657B68DB6D10229A40FB681340C7
:102A8000002B43D07B681B681B6803F00803002BF6
:102A90003CD07B68DB6D10229A403B699A607B6872
:102AA0001B681B6803F48023002B18D07B681B680D
:102AB0001B6803F40023002B08D17B681B6C002BE0
:102AC00024D07B681B6C786898471FE07B689B6C00
:102AD000002B1BD07B689B6C7868984716E07B685E
:102AE0001B681B6803F48073002B07D17B681B688D
:102AF0001A687B681B6822F008021A607B681B6CEE
:102B0000002B03D07B681B6C786898477B68DB6D73
:102B100020229A40FB681340002B00F08F807B68D6
:102B20001B681B6803F01003002B00F087807B6894
:102B3000DB6D20229A403B699A607B6893F83530C0
:102B4000DBB2052B36D17B681B681A687B681B6873
:102B500022F016021A607B681B685A697B681B6842
:102B600022F080025A617B681B6C002B03D17B68CA
:102B70009B6C002B07D07B681B681A687B681B68FE
:102B800022F008021A607B68DB6D3F229A403B69A5
:102B90009A607B68012283F835207B68002283F8E5
:102BA00034207B681B6D002B7ED07B681B6D7868A2
:102BB000984779E07B681B681B6803F48023002B2F
:102BC0001DD07B681B681B6803F40023002B0DD10C
:102BD0007B685B6C002B31D07B685B6C78689847B6
:102BE0002CE000BF00000020B5814E1B7B68DB6B32
:102BF000002B23D07B68DB6B786898471EE07B68EE
:102C00001B681B6803F48073002B0FD17B681B6863
:102C10001A687B681B6822F010021A607B68012228
:102C200083F835207B68002283F834207B68DB6BD7
:102C3000002B03D07B68DB6B786898477B685B6D03
:102C4000002B32D07B685B6D03F00103002B22D098
:102C50007B68052283F835207B681B681A687B68CF
:102C60001B6822F001021A60BB680133BB607A69FD
:102C70009A4207D37B681B681B6803F00103002B93
:102C8000F2D100E000BF7B68012283F835207B6829
:102C9000002283F834207B68DB6C002B05D07B6836
:102CA000DB6C7868984700E000BF1837BD4680BDF0
:102CB00080B485B000AFF860B9607A603B60FB68B3
:102CC0001B681A68FB681B6822F480221A60FB6884
:102CD0001B683A685A60FB689B68402B08D1FB6808
:102CE0001B687A689A60FB681B68BA68DA6007E05C
:102CF000FB681B68BA689A60FB681B687A68DA60D0
:102D000000BF1437BD465DF8047B704780B485B0C2
:102D100000AF78607B681B68DBB2103B144AA2FBF3
:102D200003231B09FB60134AFB6813441B781A46F4
:102D30007B68DA65FB68032B09D97B681B6823F481
:102D40007F7323F003031A1D7B689A6507E07B6895
:102D50001B6823F47F7323F003037A6893657B6811
:102D60009B6D18461437BD465DF8047B704700BF65
:102D7000ABAAAAAA5874000880B485B000AF7860E6
:102D80000023FB737B689B6ABB607B689B69002B9D
:102D90001FD1BB68032B56D801A252F823F000BF05
:102DA000B12D0008C32D0008B12D0008472E0008E2
:102DB0007B68DB6A03F08073002B46D00123FB7332
:102DC00043E07B68DB6AB3F1C07F40D10123FB7332
:102DD0003DE07B689B69B3F5005F21D1BB68032BA5
:102DE00037D801A252F823F0F92D0008FF2D000872
:102DF000F92D0008112E00080123FB7330E07B68D9
:102E0000DB6A03F08073002B25D00123FB7322E0E3
:102E10007B68DB6AB3F1C07F1FD10123FB731CE029
:102E2000BB68022B03D9BB68032B03D018E0012336
:102E3000FB7315E07B68DB6A03F08073002B0ED018
:102E40000123FB730BE000BF0AE000BF08E000BFF6
:102E500006E000BF04E000BF02E000BF00E000BFEA
:102E6000FB7B18461437BD465DF8047B704700BFF6
:102E700080B489B000AF7860396000237B610023A3
:102E80003B610023BB610023FB6159E10122FB6927
:102E900002FA03F37B613B681B687A6913403B616C
:102EA0003A697B699A4240F048813B685B6803F06D
:102EB0000303012B05D03B685B6803F00303022B7F
:102EC00030D17B689B68BB61FB695B00032202FA1F
:102ED00003F3DB43BA691340BB613B68DA68FB6903
:102EE0005B0002FA03F3BA691343BB617B68BA69FA
:102EF0009A607B685B68BB610122FB6902FA03F39D
:102F0000DB43BA691340BB613B685B681B0903F094
:102F10000102FB6902FA03F3BA691343BB617B68E0
:102F2000BA695A603B685B6803F00303032B17D050
:102F30007B68DB68BB61FB695B00032202FA03F379
:102F4000DB43BA691340BB613B689A68FB695B006D
:102F500002FA03F3BA691343BB617B68BA69DA60AA
:102F60003B685B6803F00303022B23D1FB69DA089B
:102F70007B68083253F82230BB61FB6903F007031A
:102F80009B000F2202FA03F3DB43BA691340BB61D3
:102F90003B681A69FB6903F007039B0002FA03F31D
:102FA000BA691343BB61FB69DA087B680832B96907
:102FB00043F822107B681B68BB61FB695B0003223E
:102FC00002FA03F3DB43BA691340BB613B685B68F9
:102FD00003F00302FB695B0002FA03F3BA691343CF
:102FE000BB617B68BA691A603B685B6803F4403375
:102FF000002B00F0A2800023FB60574B5B6C564A0D
:1030000043F480435364544B5B6C03F48043FB6094
:10301000FB68524AFB699B08023352F82330BB61BC
:10302000FB6903F003039B000F2202FA03F3DB4367
:10303000BA691340BB617B68494A934219D07B68E7
:10304000484A934213D07B68474A93420DD07B682D
:10305000464A934207D07B68454A934201D10423F4
:1030600008E0072306E0032304E0022302E0012333
:1030700000E00023FA6902F0030292009340BA696B
:103080001343BB613549FB699B080233BA6941F8B8
:103090002320384B9B68BB613B69DB43BA69134013
:1030A000BB613B685B6803F48013002B03D0BA69F3
:1030B0003B691343BB612F4ABB6993602D4BDB68AF
:1030C000BB613B69DB43BA691340BB613B685B682A
:1030D00003F40013002B03D0BA693B691343BB61AF
:1030E000244ABB69D360234B5B68BB613B69DB430C
:1030F000BA691340BB613B685B6803F40033002B83
:1031000003D0BA693B691343BB611A4ABB69536078
:10311000184B1B68BB613B69DB43BA691340BB6159
:103120003B685B6803F48033002B03D0BA693B69CA
:103130001343BB610F4ABB691360FB690133FB6139
:10314000FB690F2B7FF6A2AE00BF00BF2437BD4640
:103150005DF8047B704700BF003802400038014032
:10316000000002400004024000080240000C02403F
:1031700000100240003C014080B584B000AF786090
:103180007B68002B01D101232BE17B6893F83D3054
:10319000DBB2002B06D17B68002283F83C207868E4
:1031A000FEF73EFA7B68242283F83D207B681B688B
:1031B0001A687B681B6822F001021A607B681B6832
:1031C0001A687B681B6842F400421A607B681B68BF
:1031D0001A687B681B6822F400421A6000F03EFD0A
:1031E000F8607B685B68814A934207D8FB68804A35
:1031F000934294BF01230023DBB206E0FB687D4AC3
:10320000934294BF01230023DBB2002B01D00123A2
:10321000E7E0FB68784AA2FB03239B0CBB607B685A
:103220001B685B6823F03F017B681B68BA680A4330
:103230005A607B681B681B6A23F03F017B685B68F0
:103240006A4A934202D8BB68013309E0BB684FF475
:10325000967202FB03F3694AA2FB03239B09013325
:103260007A6812680B4313627B681B68DB6923F47E
:103270004F4222F0FF027B685B685C498B4219D8A1
:10328000FB68591E7B685B685B00B1FBF3F3591C5C
:1032900040F6FC730B40002B0AD0FB68591E7B687C
:1032A0005B685B00B1FBF3F30133C3F30B0351E045
:1032B00004234FE07B689B68002B11D1FB68581EEC
:1032C0007B6859680B465B000B44B0FBF3F301339A
:1032D000C3F30B03002B0CBF01230023DBB212E06E
:1032E000FB68581E7B6859680B469B000B4499008D
:1032F0000B44B0FBF3F30133C3F30B03002B0CBF00
:1033000001230023DBB2002B01D0012322E07B68E4
:103310009B68002B0ED1FB68581E7B6859680B46D2
:103320005B000B44B0FBF3F30133C3F30B0343F433
:1033300000430FE0FB68581E7B6859680B469B00F2
:103340000B4499000B44B0FBF3F30133C3F30B03BD
:1033500043F44043796809681343CB617B681B6879
:103360001B6823F0C0017B68DA697B681B6A1A431B
:103370007B681B680A431A607B681B689B6823F4A0
:10338000034323F0FF037A6811697A68D268114316
:103390007A6812680B4393607B681B68DB6823F0D4
:1033A000FF017B685A697B689B691A437B681B68CD
:1033B0000A43DA607B681B681A687B681B6842F006
:1033C00001021A607B6800221A647B68202283F85D
:1033D0003D207B6800221A637B68002283F83E2030
:1033E000002318461037BD4680BD00BFA0860100EF
:1033F0007F841E00FF083D0083DE1B43D34D621017
:1034000080B586B000AF78607B68002B01D10123C6
:1034100067E27B681B6803F00103002B75D0884BC3
:103420009B6803F00C03042B0CD0854B9B6803F0C6
:103430000C03082B12D1824B5B6803F48003B3F5B5
:10344000800F0BD17E4B1B6803F40033002B5BD045
:103450007B685B68002B57D1012342E27B685B6885
:10346000B3F5803F06D1764B1B68754A43F4803331
:1034700013601DE07B685B68B3F5A02F0CD1704B27
:103480001B686F4A43F4802313606D4B1B686C4AC2
:1034900043F4803313600BE0694B1B68684A23F4E4
:1034A00080331360664B1B68654A23F480231360E6
:1034B0007B685B68002B13D0FEF7E4FA386108E004
:1034C000FEF7E0FA02463B69D31A642B01D90323C5
:1034D00007E25B4B1B6803F40033002BF0D014E0D1
:1034E000FEF7D0FA386108E0FEF7CCFA02463B69F5
:1034F000D31A642B01D90323F3E1514B1B6803F466
:103500000033002BF0D100E000BF7B681B6803F0A4
:103510000203002B63D04A4B9B6803F00C03002B83
:103520000BD0474B9B6803F00C03082B1CD1444B7A
:103530005B6803F48003002B16D1414B1B6803F03A
:103540000203002B05D07B68DB68012B01D001232F
:10355000C7E13B4B1B6823F0F8027B681B69DB006B
:10356000374913430B603AE07B68DB68002B20D0BF
:10357000344B01221A60FEF785FA386108E0FEF745
:1035800081FA02463B69D31A022B01D90323A8E131
:103590002B4B1B6803F00203002BF0D0284B1B6859
:1035A00023F0F8027B681B69DB00254913430B609D
:1035B00015E0244B00221A60FEF764FA386108E037
:1035C000FEF760FA02463B69D31A022B01D90323A6
:1035D00087E11B4B1B6803F00203002BF0D17B68D3
:1035E0001B6803F00803002B36D07B685B69002B57
:1035F00016D0154B01221A60FEF744FA386108E034
:10360000FEF740FA02463B69D31A022B01D9032385
:1036100067E10B4B5B6F03F00203002BF0D01BE064
:10362000094B00221A60FEF72DFA38610EE0FEF712
:1036300029FA02463B69D31A022B07D9032350E12A
:103640000038024000004742800E4742884B5B6FC3
:1036500003F00203002BEAD17B681B6803F004032C
:10366000002B00F097800023FB75814B1B6C03F04F
:103670008053002B0FD10023BB607D4B1B6C7C4A19
:1036800043F0805313647A4B1B6C03F08053BB6090
:10369000BB680123FB75774B1B6803F48073002B19
:1036A00018D1744B1B68734A43F480731360FEF7A0
:1036B000E9F9386108E0FEF7E5F902463B69D31AFB
:1036C000022B01D903230CE16A4B1B6803F48073BE
:1036D000002BF0D07B689B68012B06D1644B1B6FDD
:1036E000634A43F0010313671CE07B689B68052B6A
:1036F0000CD15F4B1B6F5E4A43F0040313675C4BB6
:103700001B6F5B4A43F0010313670BE0584B1B6FC1
:10371000574A23F001031367554B1B6F544A23F09C
:10372000040313677B689B68002B15D0FEF7AAF98A
:1037300038610AE0FEF7A6F902463B69D31A41F266
:103740008832934201D90323CBE0494B1B6F03F02E
:103750000203002BEED014E0FEF794F938610AE082
:10376000FEF790F902463B69D31A41F28832934240
:1037700001D90323B5E03E4B1B6F03F00203002B7E
:10378000EED1FB7D012B05D1394B1B6C384A23F060
:10379000805313647B689B69002B00F0A180344B3D
:1037A0009B6803F00C03082B5CD07B689B69022BA1
:1037B00041D1314B00221A60FEF764F9386108E00C
:1037C000FEF760F902463B69D31A022B01D90323A5
:1037D00087E0274B1B6803F00073002BF0D17B6858
:1037E000DA697B681B6A1A437B685B6A9B011A4330
:1037F0007B689B6A5B08013B1B041A437B68DB6A9E
:103800001B061B4913434B601B4B01221A60FEF73A
:1038100039F9386108E0FEF735F902463B69D31AF9
:10382000022B01D903235CE0114B1B6803F00073EA
:10383000002BF0D054E0104B00221A60FEF722F962
:10384000386108E0FEF71EF902463B69D31A022BE5
:1038500001D9032345E0064B1B6803F00073002BDE
:10386000F0D13DE07B689B69012B07D1012338E053
:103870000038024000700040600047421B4B5B680C
:10388000FB607B689B69012B28D0FB6803F48002F6
:103890007B68DB699A4221D1FB6803F03F027B68B9
:1038A0001B6A9A421AD1FA6847F6C07313407A68C5
:1038B000526A9201934211D1FB6803F440327B6853
:1038C0009B6A5B08013B1B049A4207D1FB6803F02B
:1038D00070627B68DB6A1B069A4201D0012300E01C
:1038E000002318461837BD4680BD00BF003802408F
:1038F00080B584B000AF786039607B68002B01D15F
:103900000123CCE0684B1B6803F007033A689A4236
:103910000CD9654B3A68D2B21A70634B1B6803F03E
:1039200007033A689A4201D00123B8E07B681B681C
:1039300003F00203002B20D07B681B6803F0040314
:10394000002B05D0594B9B68584A43F4E0539360D1
:103950007B681B6803F00803002B05D0534B9B6862
:10396000524A43F460439360504B9B6823F0F0024B
:103970007B689B684D4913438B607B681B6803F031
:103980000103002B44D07B685B68012B07D1474BB8
:103990001B6803F40033002B19D101237FE07B68FF
:1039A0005B68022B03D07B685B68032B07D13F4B1E
:1039B0001B6803F00073002B09D101236FE03B4B20
:1039C0001B6803F00203002B01D1012367E0374B92
:1039D0009B6823F003027B685B68344913438B6068
:1039E000FEF750F8F8600AE0FEF74CF80246FB6874
:1039F000D31A41F28832934201D903234FE02B4B73
:103A00009B6803F00C027B685B689B009A42EBD1D9
:103A1000254B1B6803F007033A689A420CD2224BED
:103A20003A68D2B21A70204B1B6803F007033A6859
:103A30009A4201D0012332E07B681B6803F0040343
:103A4000002B08D0194B9B6823F4E0527B68DB689D
:103A5000164913438B607B681B6803F00803002B37
:103A600009D0124B9B6823F460427B681B69DB0022
:103A70000E4913438B6000F021F802460B4B9B6804
:103A80001B0903F00F030A49CB5C22FA03F3094A2E
:103A90001360094B1B681846FDF7B0FF002318465A
:103AA0001037BD4680BD00BF003C024000380240D8
:103AB0004074000800000020040000202DE9B04FF1
:103AC00090B000AF00237B630023FB6300233B63C4
:103AD0000023BB63584B9B6803F00C03082B0DD0ED
:103AE000082B00F2A080002B02D0042B03D09AE018
:103AF000524BBB639AE0524BBB6397E04E4B5B6803
:103B000003F03F037B634C4B5B6803F48003002BA3
:103B100027D0494B5B689B0900223B627A623B6A73
:103B2000C3F308000021464B03FB01F2002300FB16
:103B300003F31344424AA0FB0221F962BA62FA6A13
:103B40001344FB627B6B0022BB61FA61D7E9062359
:103B5000D7E90A01FDF780F802460B461346FB63DE
:103B600053E0354B5B689B0900223B617A613B69FE
:103B7000C3F3080A4FF0000B52465B464FF00000BB
:103B80004FF00001590141EAD261500102460B4653
:103B9000B2EB0A0863EB0B094FF000024FF0000391
:103BA0004FEA891343EA98634FEA8812B2EB08049C
:103BB00063EB09054FF000024FF00003EB0043EA0E
:103BC0005473E20014461D4614EB0A033B6045EBB8
:103BD0000B037B604FF000024FF00003D7E9004574
:103BE00029468B02214643EA915321468A02104618
:103BF00019467B6B0022BB60FA60D7E90223FDF710
:103C00002BF802460B461346FB630B4B5B681B0C01
:103C100003F0030301335B003B63FA6B3B6BB2FBC6
:103C2000F3F3BB6302E0054BBB6300BFBB6B1846FD
:103C30004037BD46BDE8B08F003802400024F40094
:103C400040787D0180B400AF034B1B681846BD4629
:103C50005DF8047B704700BF0000002080B500AF16
:103C6000FFF7F0FF0246054B9B689B0A03F0070332
:103C70000349CB5C22FA03F3184680BD00380240AA
:103C80005074000880B500AFFFF7DCFF0246054B1B
:103C90009B685B0B03F007030349CB5C22FA03F339
:103CA000184680BD003802405074000880B582B0CC
:103CB00000AF78607B68002B01D1012342E07B6874
:103CC00093F84130DBB2002B06D17B68002283F8E9
:103CD00040207868FDF7ECFC7B68242283F84120C3
:103CE0007B681B68DA687B681B6822F40052DA6024
:103CF000786800F073F97B681B681A697B681B6839
:103D000022F490421A617B681B685A697B681B68C1
:103D100022F02A025A617B681B68DA687B681B689C
:103D200042F40052DA607B6800225A647B682022E9
:103D300083F841207B68202283F842207B680022A0
:103D40005A63002318460837BD4680BD80B58AB047
:103D500002AFF860B9603B601346FB8000237B61D3
:103D6000FB6893F84130DBB2202B75D1BB68002B88
:103D700002D0FB88002B01D101236EE0FB680022FA
:103D80005A64FB68212283F84120FDF77BFE7861AD
:103D9000FB68FA889A84FB68FA88DA84FB689B6877
:103DA000B3F5805F08D1FB681B69002B04D10023A9
:103DB000FB61BB68BB6103E0BB68FB610023BB61C7
:103DC0002EE03B6800937B6900228021F86800F0B8
:103DD00048F80346002B05D0FB68202283F84120D9
:103DE00003233AE0FB69002B0BD1BB691B881A4601
:103DF000FB681B68C2F308025A60BB690233BB61EF
:103E000007E0FB691A78FB681B685A60FB6901339D
:103E1000FB61FB68DB8C9BB2013B9AB2FB68DA84E6
:103E2000FB68DB8C9BB2002BCBD13B6800937B699A
:103E300000224021F86800F014F80346002B05D05A
:103E4000FB68202283F84120032306E0FB68202240
:103E500083F84120002300E0022318462037BD46A6
:103E600080BD80B586B000AFF860B9603B60134696
:103E7000FB713BE03B6AB3F1FF3F37D0FDF702FE39
:103E800002463B68D31A3A6A9A4202D33B6A002B35
:103E900001D103233AE0FB681B68DB6803F00403ED
:103EA000002B23D0BB68802B20D0BB68402B1DD0BB
:103EB000FB681B681B6803F00803082B16D100235E
:103EC0007B61FB681B681B687B61FB681B685B6828
:103ED0007B617B69F86800F01DF8FB6808225A6472
:103EE000FB68002283F8402001230FE0FB681B6879
:103EF0001A68BB681340BA689A420CBF01230023BA
:103F0000DBB21A46FB799A42B4D000231846183720
:103F1000BD4680BD80B495B000AF78607B681B68FB
:103F20000C337B637B6B53E8003F3B633B6B23F4B9
:103F30009073FB647B681B680C33FA6C3A64FB6318
:103F4000F96B3A6C41E80023BB63BB6B002BE5D1F6
:103F50007B681B6814333B623B6A53E8003FFB619C
:103F6000FB6923F00103BB647B681B681433BA6CE4
:103F7000FA62BB62B96AFA6A41E800237B627B6A33
:103F8000002BE5D17B681B6B012B19D17B681B686B
:103F90000C33FB60FB6853E8003FBB60BB6823F059
:103FA00010037B647B681B680C337A6CBA617B619D
:103FB0007969BA6941E800233B613B69002BE5D18F
:103FC0007B68202283F842207B6800221A6300BFAE
:103FD0005437BD465DF8047B704700002DE9B04FB3
:103FE000C0B000AFC7F8F400D7F8F4301B681B6905
:103FF00023F44050D7F8F430D968D7F8F4301A6871
:1040000040EA01031361D7F8F4309A68D7F8F43026
:104010001B691A43D7F8F4305B691A43D7F8F430B8
:10402000DB691343C7F8F830D7F8F4301B68DB6856
:1040300023F4164121F00C01D7F8F4301A68D7F8B0
:10404000F8300B43D360D7F8F4301B685B6923F476
:104050004070D7F8F4309969D7F8F4301A6840EA1C
:1040600001035361D7F8F4301A688F4B9A4205D098
:10407000D7F8F4301A688D4B9A4204D1FFF702FE4C
:10408000C7F8FC0003E0FFF7E9FDC7F8FC00D7F82C
:10409000F430DB69B3F5004F40F00C81D7F8FC3009
:1040A0000022C7F8E830C7F8EC20D7E93A452246A5
:1040B0002B469118B9655B41FB65D7E9162321466C
:1040C00012EB0108294643EB01094FF000024FF0C3
:1040D00000034FEAC90343EA58734FEAC802904607
:1040E0009946234618EB0303C7F8E0302B4649EB0B
:1040F0000303C7F8E430D7F8F4305B680022C7F850
:10410000D830C7F8DC20D7E936120B46DB183B6500
:10411000134642EB03037B65D7E91423D7E9380143
:10412000FCF79AFD02460B46614BA3FB02235B0999
:104130001C01D7F8FC300022C7F8D030C7F8D420D3
:10414000D7E9348942464B469118B9645B41FB6418
:10415000D7E91223414612EB010A494643EB010B12
:104160004FF000024FF000034FEACB0343EA5A73CB
:104170004FEACA0292469B4643461AEB0303C7F82E
:10418000C8304B464BEB0303C7F8CC30D7F8F430BC
:104190005B680022C7F8C030C7F8C420D7E93012E6
:1041A0000B46DB183B64134642EB03037B64D7E901
:1041B0001023D7E93201FCF74FFD02460B461146AA
:1041C0003B4BA3FB01235B09642202FB03F3CB1AE5
:1041D000DB0003F13202364BA3FB02235B095B00D9
:1041E00003F4F8731C44D7F8FC300022C7F8B83049
:1041F000C7F8BC20D7E92E8942464B469118B963CF
:104200005B41FB63D7E90E234146511839634946A8
:104210004B417B634FF000024FF00003D7E90CAB3A
:104220005946CB00514643EA51735146CA001046E5
:104230001946034642469B18C7F8B0304B460A461B
:1042400042EB0303C7F8B430D7F8F4305B680022C0
:10425000C7F8A830C7F8AC20D7E92A120B46DB18FC
:10426000BB62134642EB0303FB62D7E90A23D7E99B
:104270002C01FCF7F1FC02460B460D4BA3FB02138D
:104280005B09642101FB03F3D31ADB003233084AD4
:10429000A2FB03235B0903F00702D7F8F4301B6885
:1042A00022449A6006E100BF001001400014014062
:1042B0001F85EB51D7F8FC300022C7F8A030C7F8B3
:1042C000A420D7E9288942464B46911839625B41C0
:1042D0007B62D7E9082341465418494643EB010560
:1042E0004FF000024FF00003EB0043EA5473E2008A
:1042F00014461D464346E318C7F898304B4645EB35
:104300000303C7F89C30D7F8F4305B680022C7F885
:104310009030C7F894204FF000024FF00003D7E927
:10432000244529468B00214643EA917321468A00A1
:10433000D7E92601FCF790FC02460B46604BA3FB35
:1043400002235B091C01D7F8FC300022C7F8883033
:10435000C7F88C20D7E9228942464B469118B961AB
:104360005B41FB61D7E90623414651183961494653
:104370004B417B614FF000024FF00003D7E904ABE3
:104380005946CB00514643EA51735146CA00104684
:104390001946034642469B18C7F880304B460A46EA
:1043A00042EB0303C7F88430D7F8F4305B6800228F
:1043B000BB67FA674FF000024FF00003D7E91E8990
:1043C00049468B00414643EA917341468A00D7E94A
:1043D0002001FCF741FC02460B461146384BA3FB7B
:1043E00001235B09642202FB03F3CB1A1B01323366
:1043F000334AA2FB03235B0903F0F0031C44D7F804
:10440000FC3000223B677A67D7E91C8942464B465D
:104410009118B9605B41FB60D7E90223414651180E
:10442000396049464B417B604FF000024FF000037A
:10443000D7E900AB5946CB00514643EA5173514688
:10444000CA0010461946034642469B18BB664B46B7
:104450000A4642EB0303FB66D7F8F4305B680022A0
:104460003B667A664FF000024FF00003D7E91889E7
:1044700049468B00414643EA917341468A00D7E999
:104480001A01FCF7E9FB02460B460D4BA3FB021396
:104490005B09642101FB03F3D31A1B013233084A81
:1044A000A2FB03235B0903F00F02D7F8F4301B686B
:1044B00022449A6000BF07F58077BD46BDE8B08F03
:1044C0001F85EB512DE9FF4757EC106B002F0C4671
:1044D00019463B46BBBF07F100431F4600232D236F
:1044E0000B700D9BDDF830A0914623F02008BCBF77
:1044F00032461646B8F1460F05D0B8F1450F00D147
:104500000134022100E0032103AB019302AB0093CD
:1045100047EC106B5346224600F062FEB8F1470F9D
:10452000054619D119F0010F0ED000EB0409002245
:10453000002330463946FCF7CFFA08B1CDF80C908D
:104540003022039B4B451ED3039B0E9A5B1B2846D0
:10455000136004B0BDE8F087B8F1460F00EB040922
:10456000E5D10378302B0AD10022002330463946AA
:10457000FCF7B2FA18B9C4F10104CAF80040DAF83D
:1045800000309944D3E7591C03911A70D9E7F7B565
:104590000029BABF49422D232B23092902704370F9
:1045A00029DD0DF1070425460A272246B1FBF7F65F
:1045B00007FB1613303302F8013C0B46632B04F162
:1045C000FF343146F1DC3031931E04F8011C411CEC
:1045D0001C46AB420AD30DF109039B1AA54238BF12
:1045E0000023821C1344181A03B0F0BD13F8016BAA
:1045F00001F8016FEDE7302330318370C170031D86
:10460000F1E700002DE9F04F8DB00C46DDF8588041
:1046100016461F46054600F0E3FC0368069318465D
:10462000FBF72EFE00230A93D8F8003094F818A068
:10463000D4F800B00790073323F00703B3EC027BF4
:104640008DED047BC8F80030DDE9048323F00049D8
:1046500084ED127B9C4B4FF0FF3240464946FCF7FD
:104660006DFA70BB984B4FF0FF3240464946FCF75D
:1046700047FA30BBDDE9040100220023FCF736FADB
:1046800010B12D2384F84330904A914BBAF1470F73
:104690008CBF90469846032323612BF004032360CC
:1046A0004FF00009009733460BAA2146284600F038
:1046B000D1F9013040F08C804FF0FF300DB0BDE8F3
:1046C000F08FDDE9042310461946FCF737FA40B1B4
:1046D000059B804A002BBCBF2D2384F843307E4BC2
:1046E000D4E763685A1C0AF0DF093BD106236360F4
:1046F0004BF480620023226003930AABCDE901A34F
:1047000009AB009361689DED040B0DF1230328466E
:10471000FFF7D8FEB9F1470F0999804629D1C81C87
:1047200002DB63688B4241DAAAF1020A5FFA8AFA75
:104730000139524604F150000991FFF728FF0A9A07
:104740001318012A8146236102DC2268D20701D5B1
:10475000013323619DF82330002BA3D02D2384F84F
:1047600043309FE7B9F1470FC2D1002BC0D10123DD
:10477000BDE7BAF1650FDBD9BAF1660F18D1002990
:1047800063680BDD216113B92268D00702D50133BC
:104790000B442361A1654FF00009DBE713B92268E0
:1047A000D20701D50233F4E70123F2E74FF0670A9D
:1047B0000A9B8B4205DC23682161D807EAD54B1C94
:1047C000E7E70029D4BFC1F1020201221344E0E768
:1047D00023685A0507D42369424631462846B8471C
:1047E00001302BD168E7BAF1650F40F2DD80D4E9E2
:1047F000120100220023FCF76FF9002833D0374A5A
:10480000012331462846B84701303FF455AFDDE972
:104810000938434502DB2368D8070FD5DDE90623B5
:1048200031462846B84701303FF446AF4FF0000903
:1048300008F1FF3804F11A0AC84509DC23689B0710
:1048400000F10381E0680B9B9842B8BF184635E73A
:104850000123524631462846B84701303FF42CAF79
:1048600009F10109E8E7099B002B39DC1B4A012308
:1048700031462846B84701303FF41EAFDDE909391B
:1048800059EA030302D12368D907D7D5DDE9062306
:1048900031462846B84701303FF40EAF4FF0000ACA
:1048A00004F11A0B099B5B42534501DC4B4693E72D
:1048B00001235A4631462846B84701303FF4FCAE42
:1048C0000AF1010AEEE700BFFFFFEF7F6474000802
:1048D000607400086C740008687400087074000844
:1048E000A36DDDF828A05345A8BF5346002B994679
:1048F00036DC4FF0000B29EAE97904F11A02A36DC6
:104900000493A3EB09035B4531DC099B9A453ADC30
:104910002368DA0737D4099BAAEB0309049BAAEBA7
:1049200003039945A8BF9946B9F1000F33DC4FF056
:10493000000829EAE97904F11A0B099BAAEB0303A1
:10494000A3EB090343457FF779AF01235A4631466C
:104950002846B84701303FF4AFAE08F10108ECE754
:10496000424631462846B8470130C2D1A4E6012369
:10497000314628460492B84701303FF49DAE049A70
:104980000BF1010BBBE7DDE9062331462846B847AA
:104990000130C0D190E6049A4B4642443146284645
:1049A000B8470130C3D187E6DDF828A0BAF1010F7E
:1049B00001DCDB0736D50123424631462846B8479D
:1049C00001303FF479AEDDE9062331462846B84789
:1049D00001303FF471AED4E91201002200230AF144
:1049E000FF3AFCF779F8C0B9534608F101023146A5
:1049F0002846B84701300CD15EE601235A463146BD
:104A00002846B84701303FF457AE08F10108D045B9
:104A1000F3DB4B4604F15002DFE64FF0000804F1EF
:104A20001A0BF4E701234246E1E701234A463146E7
:104A30002846B84701303FF43FAE08F10108E3686B
:104A40000B995B1A4345F0DCFCE64FF0000804F1DB
:104A50001909F4E72DE9F047164698468A680B696C
:104A6000DDF820909342B8BF1346336091F843209D
:104A700007460C460AB1013333602368990642BFEA
:104A8000336802333360256815F0060506D104F15A
:104A9000190AE36832689B1AAB4226DC94F843306B
:104AA0002268003B18BF012392062BD404F1430275
:104AB00041463846C84701301ED02368226903F0BA
:104AC0000603042B02BFE5683368ED1AA3680CBF28
:104AD00025EAE57500259342C4BF9B1AED18002610
:104AE0001A34B5421AD1002008E00123524641464B
:104AF0003846C847013003D14FF0FF30BDE8F0879A
:104B00000135C6E7E1185A1C302081F843002244E1
:104B100094F8451082F843100233C7E70123224678
:104B200041463846C8470130E6D00136D9E7000093
:104B30002DE9F0430D7E85B0782D90460C9E0746FA
:104B40000C46994601F1430207D8622D0AD8002D80
:104B500000F0D780582D00F0BC8004F1420684F8A4
:104B600042503BE0A5F16303152BF6D801A151F8A3
:104B700023F000BFCD4B0008E14B00085B4B000861
:104B80005B4B00085B4B00085B4B0008E14B0008E7
:104B90005B4B00085B4B00085B4B00085B4B00085D
:104BA000E94C00080B4C00089B4C00085B4B0008CC
:104BB0005B4B00080B4D00085B4B00080B4C0008DA
:104BC0005B4B00085B4B0008A34C000833681A1DC0
:104BD0001B68326004F1420684F842300123A1E0F0
:104BE00033682068191D3160060601D51D6803E091
:104BF0004506FBD5B3F90050002D03DA2D236D4295
:104C000084F843305B480A2311E0216833680806C2
:104C100053F8045B02D4490648BFADB23360237E2B
:104C200054486F2B5CD10823002184F84310666838
:104C3000A660002E05DB21682E4321F004012160CF
:104C400050D01646B5FBF3F103FB115C10F80CC015
:104C500006F801CDAC4663450D46F3D9082B0BD1C0
:104C60002368DB0708D5236961689942DEBF3023DA
:104C700006F8013C06F1FF36921B2261CDF8009048
:104C8000434603AA21463846FFF7E4FE01304ED1E1
:104C90004FF0FF3005B0BDE8F083236843F02003F8
:104CA00023603548782584F845502368316813F02F
:104CB000800F51F8045B03D113F0400F18BFADB261
:104CC0003160D90744BF43F0200323601DB1102396
:104CD000AAE72848E7E7236823F020032360F6E7E4
:104CE0000A23A1E71646B9E7336825686169181DEC
:104CF00030602E061B6801D5196002E06806FBD5FE
:104D00001980002323611646B8E733681A1D326004
:104D10001E68626800213046FBF762FA08B1801B0A
:104D2000606063682361002384F84330A6E7236949
:104D3000324641463846C8470130A9D023689B0710
:104D400013D4E068039B9842B8BF1846A2E701233A
:104D5000324641463846C847013099D00135E368AC
:104D600003995B1AAB42F2DCEBE7002504F119066C
:104D7000F5E700BF7274000883740008002310B5C3
:104D80000446C0E90033C0E904338360818143668F
:104D9000C2818361194608225C3000F019F90D4B7D
:104DA00063620D4BA3620D4BE3620D4B23630D4B0E
:104DB00024629C4206D003F16802944202D0D033B0
:104DC0009C4205D104F15800BDE8104000F07CB9C8
:104DD00010BD00BF494F00086B4F0008A34F0008EB
:104DE000C94F0008B8030020024A0349034800F0F5
:104DF0006BB800BF0C0000205D6A00081C0000209A
:104E000041680C4B994210B5044601D001F026FED2
:104E1000A168094B994202D0204601F01FFEE168CB
:104E2000064B994204D02046BDE8104001F016BE62
:104E300010BD00BFB803002020040020880400201B
:104E40000C4B0D4A0D4810B504211A600022FFF7E3
:104E500095FF0A4B01221C46092103F16800FFF768
:104E60008DFF04F1D0000222BDE810401221FFF7AF
:104E700085BF00BFF0040020E94D0008B803002002
:104E8000014800F022B900BFF9040020014800F0F9
:104E90001DB900BFF904002010B50446FFF7F0FF6C
:104EA000236A1BB1BDE81040FFF7F0BF044B23623B
:104EB000044B1B68002BF5D1FFF7C2FFF2E700BFE0
:104EC000014E0008F00400202DE9F843074688460B
:104ED00014460026D4E90195B9F1010905D52468E5
:104EE000002CF7D13046BDE8F883AB89012B07D9F8
:104EF000B5F90E30013303D029463846C047064382
:104F00006835E9E70EB410B59DB01FAB029006906E
:104F10006FF000410A48079104910A4953F8042BA5
:104F20000591002402A9006801931B9401F01CFC68
:104F3000029B1C701DB0BDE8104003B0704700BF5D
:104F4000180000200802FFFF10B50C46B1F90E1042
:104F500000F06CF80028ABBF636DA3891B1823F425
:104F60008053ACBF6365A38110BD2DE9F0411F469E
:104F70008B89DB0505460C46164605D5B1F90E10A2
:104F80000223002200F040F8A389B4F90E1023F4A4
:104F90008053A38132463B462846BDE8F04100F0ED
:104FA00057B810B50C46B1F90E1000F02DF8B4F951
:104FB0000C30421C0BBF23F4805343F48053A38175
:104FC000A38118BF606510BDB1F90E1000F00CB8D8
:104FD00002440346934200D1704703F8011BF9E7EE
:104FE000004870475801002038B5064D002304469C
:104FF00008462B60FCF73AFC431C02D12B6803B136
:10500000236038BDF404002038B5074D0446084637
:10501000114600222A601A46FCF74FFC431C02D1BD
:105020002B6803B1236038BDF404002038B5074D68
:1050300004460846114600222A601A46FCF7DDFBAA
:10504000431C02D12B6803B1236038BDF404002057
:1050500038B5074D04460846114600222A601A4614
:10506000FCF7E8FB431C02D12B6803B1236038BD79
:10507000F4040020014B1868704700BF180000209E
:1050800070B50D4B0D4D5B1B9C100026A64209D13F
:1050900002F0A4F90A4D0B4B5B1B9C100026A642A4
:1050A00005D170BD55F8043B98470136EEE755F839
:1050B000043B98470136F2E7F0770008F0770008E4
:1050C000F0770008F47700087047704770472DE9C3
:1050D000F74F03690C69A34207467EDB013C01F1EF
:1050E0001408A30000F11405009305EB8403019359
:1050F00058F8243055F8242001339A4208EB8409EB
:10510000B2FBF3F62ED34FF0000AC446AE46D346A8
:105110005CF8043B98B206FB00A0020C1B0C06FBDB
:105120000323DEF8002080B292B2121A5A44DEF84D
:1051300000004FEA134A9BB2C3EB224303EB104338
:1051400092B242EA0342E1454EF8042B4FEA234B68
:10515000DED2009BEB582BB9019B043B9D421A46C3
:105160002FD33C61384601F093F9002825DB29460E
:10517000002058F8042BD1F800C01FFA82FE1FFA55
:105180008CF3A3EB0E030344120CC2EB234202EB9D
:105190001C429BB243EA0243C14541F8043B4FEA3B
:1051A0002240E6D255F8242005EB840322B9043BC3
:1051B0009D421A460BD33C610136304603B0BDE830
:1051C000F08F1268043B002ACBD1013CC6E712687D
:1051D000043B002AEFD1013CEAE70020EEE70000A3
:1051E0002DE9F04F99B08DED0E0B0C92C269229C07
:1051F0000A9157EC106B8146139382B9102000F08E
:1052000015FE0246C9F81C0020B9AB4BEF21AB4894
:1052100001F084FC0023C0E901330360C36011681E
:1052200059B152684A60012393408B60484600F0B0
:10523000F1FED9F81C3000221A60B7F10008B5BFA2
:1052400001230023236023609D4BBCBF28F000484E
:10525000CDF83C8033EA08031AD1139AC8F3130837
:1052600042F20F7358EA0608136000F06885239B2A
:1052700053B9944B21E0944B00930833239A136065
:10528000009819B0BDE8F08F8E4B00930333F5E71B
:105290009DED0E7B002251EC170B00238DED067B5C
:1052A000FBF71AFC824650B1139A01231360239B2B
:1052B00013B1239A854B1360854B0093E0E79DED76
:1052C000060B16AA17A9484601F096F95FEA18548A
:1052D000169D019079D0079BCDF850A0C3F313031E
:1052E000DDE9060143F07F5343F44013A4F2FF3499
:1052F00019460022774BFAF7CFFF69A3D3E90023C1
:10530000FBF782F968A3D3E90023FAF7C7FF064643
:1053100020460F46FBF70EF965A3D3E90023FBF700
:1053200073F902460B4630463946FAF7B7FF064690
:105330000F46FBF719FC0022804600233046394611
:10534000FBF7D4FB48B14046FBF7F4F832463B4646
:10535000FBF7C2FB08B908F1FF38B8F1160F51D8B6
:105360005D4B03EBC803D3E90023DDE90601FBF73E
:10537000BDFB002848D008F1FF38002312932D1BF5
:105380006B1E089343BF0023C5F101070893002754
:10539000B8F1000F3ADB089BCDF834804344089302
:1053A000002309930A9B092B62D8052BC4BF043B39
:1053B0000A930A9BA3F10203CCBF00240124032B10
:1053C00062D8DFE803F05153362B179C2C4404F2CB
:1053D0003243202BC1BFC3F1400308FA03F804F2A3
:1053E000124326FA03F3D6BFC3F1200348EA0300B1
:1053F00006FA03F0FBF78EF80122A1F1F873013CE5
:10540000149275E70123B9E71290B8E7C8F10003D9
:1054100009930023A7EB08070D93C3E701230B9320
:105420000C9B434405930133012B0493B8BF012324
:1054300006E001230B930C9B002B28DDCDE9043300
:10544000D9F81C000021042202F114059D4223D941
:105450004160484600F0A0FD0090002840D11F4B5D
:10546000024640F2AF11D2E60023E3E70023D6E77D
:1054700001240023CDE90A344FF0FF33CDE9043392
:10548000002212230C92DBE701230B93F4E70123A4
:10549000CDE904331A46F5E701315200D4E700BFE5
:1054A00061436F63A787D23FB3C8608B288AC63F2A
:1054B000FB799F501344D33FA1740008B8740008CF
:1054C0000000F07F9D740008947400087174000857
:1054D000707400080000F83F087600081075000896
:1054E000D9F81C30009A1A60049B0E2B00F2A180A0
:1054F000002C00F09E80B8F1000F36DD9E4B08F0C6
:105500000F0203EBC20318F4807FD3E900AB4FEA2C
:10551000281516D0994BDDE90601D3E90823FBF7DE
:105520009DF9CDE9020105F00F050324934E75B9ED
:10553000DDE9020152465B46FBF790F982468B4655
:105540002DE09DED067B02248DED027BEEE7E90761
:1055500008D550465946D6E90023FBF755F80134E3
:1055600082468B466D100836E1E700F0AD80C8F149
:105570000005814B814E05F00F0203EBC203D3E916
:105580000023DDE90601FBF73FF82D1182468B462B
:1055900000230224002D40F08C80002BCED1129BE2
:1055A000002B00F09580764B002250465946FBF7C1
:1055B0009DFA002800F08C80049B002B00F088806E
:1055C000059B002B35DD08F1FF3302935046594609
:1055D0006C4B0022FBF718F8059E82468B4601347F
:1055E0002046FAF7A7FF52465B46FBF70DF8664BDD
:1055F0000022FAF753FE0446A1F15075CDE910459B
:10560000002E69D1614B002250465946FAF744FEFC
:1056100022462B4682468B46FBF786FA002840F04E
:105620009482224605F1004350465946FBF75EFA44
:1056300020BB179B002BC0F26081B8F10E0F00F366
:105640005C814D4B03EBC803D3E900AB0C9B002BF3
:1056500080F2EE80049B002B00F3EA800ED14B4BCE
:10566000002250465946FAF7CFFF02460B46DDE9C5
:105670000601FBF745FA002800F06A8200252C4657
:105680000C9B009EDB430293274600242946484694
:1056900000F0C0FC002F00F0C1802CB1BC4203D050
:1056A0002146484600F0B6FC3946484600F0B2FCB8
:1056B000B4E0EA0705D5D6E90023FAF7A5FF0134DF
:1056C00001236D10083665E7DDE906AB022466E7C5
:1056D000049ECDF8088083E7274B03EBC60353E90C
:1056E00002010B9B002B55D002460B460020284997
:1056F000FBF7B4F8DDE91023FAF7CEFD009BCDE906
:1057000010019D191E4659465046FBF72DFA0446D6
:10571000FAF710FF02460B4650465946FAF7BCFD11
:105720003034DDE9102306F8014B82468B46FBF747
:10573000DDF9002872D152465B4611490020FAF784
:10574000ABFDDDE91023FBF7D1F9002840F0B6806E
:10575000AE423FF46EAFDDE910010A4B0022FAF7CA
:1057600053FF084BCDE91001002250465946FAF785
:105770004BFF82468B46C6E708760008E0750008B6
:105780000000F03F0000244000001C4000001440D6
:105790000000E03FDDE91023FAF736FF009B009D93
:1057A000CDE910013344159359465046FBF7DCF917
:1057B0000446FAF7BFFE30340B46024659465046BF
:1057C000FAF76AFD05F8014B159B9D4282468B4610
:1057D00027D1009B0022DDE910011E44B34BFAF7EC
:1057E0005DFD02460B4650465946FBF79DF90028E1
:1057F00064D1DDE91023AD490020FAF74DFD0246E2
:105800000B4650465946FBF771F900283FF411AF9B
:10581000334616F8012D302AFAD01E46DDF80880EE
:105820003AE0A34B0022FAF7EFFE82468B46BBE735
:10583000009E52465B46DDE90601FBF70FF8FBF7D9
:1058400093F90746FAF776FE52465B46FAF7DCFE16
:1058500002460B46DDE90601FAF71EFD07F1300CA2
:10586000009C06F801CBA6EB040C049C64450246A0
:105870000B4633D1FAF712FD52465B4604460D46FD
:10588000FBF752F9C0B952465B4620462946FBF762
:1058900023F908B1FB070FD40199484600F0BAFB81
:1058A0000023139A337008F101031360239B002B2C
:1058B0003FF4E6AC1E60E3E4CDF8088033461E46B4
:1058C00013F8012D392A06D1009A9A42F7D1029A8B
:1058D00001320292302201321A709FE7744B00228B
:1058E000FAF792FE02460B46CDE90623002200237A
:1058F000FBF7F2F800289CD0CEE70B9A002A00F0C4
:10590000E3800A9A012A00F3C280149A002A00F068
:10591000BA8003F23343099D3E46089A01211A4496
:1059200048461F44089200F029FC044656B1089BE3
:10593000002B07DDB342089AA8BF3346FF1AF61AB8
:10594000D31A0893099B0BB30B9B002B00F0C38069
:10595000002D00F0BD8021462A46484600F0CEFCCE
:10596000019A01460446484600F01EFC0199824611
:10597000484600F04FFB099B5B1B099300F0AE808B
:10598000099A5146484600F0B9FC01900121484669
:1059900000F0F4FB0D9B0546002B00F0D7811A4662
:1059A0000146484600F0AAFC0A9B012B054600F37D
:1059B0009D800E9B002B40F094800F9BC3F313033C
:1059C000002B40F08E800F9B23F000431B0D1B0526
:1059D000002B00F08980089B0133013708934FF0BA
:1059E000010A0D9B002B00F0B7812B6905EB8303A7
:1059F000186900F077FBC0F12000089B184410F0F4
:105A00001F007ED0C0F12003042B72DD089BC0F183
:105A10001C000344074406440893002F05DD019948
:105A20003A46484600F0C6FC0190089B002B05DD75
:105A300029461A46484600F0BDFC0546129B002B3D
:105A400061D00198294600F023FD00285BDA08F1B7
:105A5000FF330293019900230A22484600F0FCFA22
:105A60000B9B0190002B00F07981002321460A2234
:105A7000484600F0F1FA059B002B044672DC0A9BB5
:105A8000022B49DC6EE0169BC3F1360343E7049B0F
:105A90005D1E099BAB420DDB5D1B049B002BBFF61B
:105AA0003BAF049BFE1A002337E700BF0000E03F36
:105AB00000002440099B0D9A0995EB1A1A440D9297
:105AC000049B3E46002528E7099D0B9C3E462DE79A
:105AD000DDF804A054E7099A019953E7CDF804A032
